{
  "contractName": "FundraiserFactory",
  "abi": [
    {
      "anonymous": false,
      "inputs": [
        {
          "indexed": true,
          "internalType": "contract Fundraiser",
          "name": "fundraiser",
          "type": "address"
        },
        {
          "indexed": true,
          "internalType": "address",
          "name": "owner",
          "type": "address"
        }
      ],
      "name": "FundraiserCreated",
      "type": "event"
    },
    {
      "constant": true,
      "inputs": [],
      "name": "storedData",
      "outputs": [
        {
          "internalType": "string",
          "name": "",
          "type": "string"
        }
      ],
      "payable": false,
      "stateMutability": "view",
      "type": "function"
    },
    {
      "constant": false,
      "inputs": [
        {
          "internalType": "string",
          "name": "name",
          "type": "string"
        },
        {
          "internalType": "string",
          "name": "url",
          "type": "string"
        },
        {
          "internalType": "string",
          "name": "imageURL",
          "type": "string"
        },
        {
          "internalType": "string",
          "name": "description",
          "type": "string"
        },
        {
          "internalType": "address payable",
          "name": "beneficiary",
          "type": "address"
        }
      ],
      "name": "createFundraiser",
      "outputs": [],
      "payable": false,
      "stateMutability": "nonpayable",
      "type": "function"
    },
    {
      "constant": false,
      "inputs": [
        {
          "internalType": "string",
          "name": "name",
          "type": "string"
        },
        {
          "internalType": "string",
          "name": "url",
          "type": "string"
        },
        {
          "internalType": "string",
          "name": "imageURL",
          "type": "string"
        },
        {
          "internalType": "string",
          "name": "description",
          "type": "string"
        },
        {
          "internalType": "address payable",
          "name": "beneficiary",
          "type": "address"
        }
      ],
      "name": "createFundraisertwo",
      "outputs": [],
      "payable": false,
      "stateMutability": "nonpayable",
      "type": "function"
    },
    {
      "constant": false,
      "inputs": [
        {
          "internalType": "string",
          "name": "myText",
          "type": "string"
        }
      ],
      "name": "set",
      "outputs": [],
      "payable": false,
      "stateMutability": "nonpayable",
      "type": "function"
    },
    {
      "constant": true,
      "inputs": [],
      "name": "fundraisersCount",
      "outputs": [
        {
          "internalType": "uint256",
          "name": "",
          "type": "uint256"
        }
      ],
      "payable": false,
      "stateMutability": "view",
      "type": "function"
    },
    {
      "constant": true,
      "inputs": [
        {
          "internalType": "uint256",
          "name": "limit",
          "type": "uint256"
        },
        {
          "internalType": "uint256",
          "name": "offset",
          "type": "uint256"
        }
      ],
      "name": "fundraisers",
      "outputs": [
        {
          "internalType": "contract Fundraiser[]",
          "name": "coll",
          "type": "address[]"
        }
      ],
      "payable": false,
      "stateMutability": "view",
      "type": "function"
    }
  ],
  "bytecode": "0x608060405234801561001057600080fd5b50611fec806100206000396000f3fe60806040523480156200001157600080fd5b50600436106200006a5760003560e01c806311d752ad146200006f5780632a1afcd9146200031e5780634ed3885e14620003a6578063704914f814620004675780637f4dc6b014620004f95780639d3b435514620007a8575b600080fd5b6200031c600480360360a08110156200008757600080fd5b8101908080359060200190640100000000811115620000a557600080fd5b820183602082011115620000b857600080fd5b80359060200191846001830284011164010000000083111715620000db57600080fd5b91908080601f016020809104026020016040519081016040528093929190818152602001838380828437600081840152601f19601f820116905080830192505050505050509192919290803590602001906401000000008111156200013f57600080fd5b8201836020820111156200015257600080fd5b803590602001918460018302840111640100000000831117156200017557600080fd5b91908080601f016020809104026020016040519081016040528093929190818152602001838380828437600081840152601f19601f82011690508083019250505050505050919291929080359060200190640100000000811115620001d957600080fd5b820183602082011115620001ec57600080fd5b803590602001918460018302840111640100000000831117156200020f57600080fd5b91908080601f016020809104026020016040519081016040528093929190818152602001838380828437600081840152601f19601f820116905080830192505050505050509192919290803590602001906401000000008111156200027357600080fd5b8201836020820111156200028657600080fd5b80359060200191846001830284011164010000000083111715620002a957600080fd5b91908080601f016020809104026020016040519081016040528093929190818152602001838380828437600081840152601f19601f820116905080830192505050505050509192919290803573ffffffffffffffffffffffffffffffffffffffff169060200190929190505050620007c8565b005b6200032862000aeb565b6040518080602001828103825283818151815260200191508051906020019080838360005b838110156200036a5780820151818401526020810190506200034d565b50505050905090810190601f168015620003985780820380516001836020036101000a031916815260200191505b509250505060405180910390f35b6200046560048036036020811015620003be57600080fd5b8101908080359060200190640100000000811115620003dc57600080fd5b820183602082011115620003ef57600080fd5b803590602001918460018302840111640100000000831117156200041257600080fd5b91908080601f016020809104026020016040519081016040528093929190818152602001838380828437600081840152601f19601f82011690508083019250505050505050919291929050505062000b8d565b005b620004a0600480360360408110156200047f57600080fd5b81019080803590602001909291908035906020019092919050505062000ba9565b6040518080602001828103825283818151815260200191508051906020019060200280838360005b83811015620004e5578082015181840152602081019050620004c8565b505050509050019250505060405180910390f35b620007a6600480360360a08110156200051157600080fd5b81019080803590602001906401000000008111156200052f57600080fd5b8201836020820111156200054257600080fd5b803590602001918460018302840111640100000000831117156200056557600080fd5b91908080601f016020809104026020016040519081016040528093929190818152602001838380828437600081840152601f19601f82011690508083019250505050505050919291929080359060200190640100000000811115620005c957600080fd5b820183602082011115620005dc57600080fd5b80359060200191846001830284011164010000000083111715620005ff57600080fd5b91908080601f016020809104026020016040519081016040528093929190818152602001838380828437600081840152601f19601f820116905080830192505050505050509192919290803590602001906401000000008111156200066357600080fd5b8201836020820111156200067657600080fd5b803590602001918460018302840111640100000000831117156200069957600080fd5b91908080601f016020809104026020016040519081016040528093929190818152602001838380828437600081840152601f19601f82011690508083019250505050505050919291929080359060200190640100000000811115620006fd57600080fd5b8201836020820111156200071057600080fd5b803590602001918460018302840111640100000000831117156200073357600080fd5b91908080601f016020809104026020016040519081016040528093929190818152602001838380828437600081840152601f19601f820116905080830192505050505050509192919290803573ffffffffffffffffffffffffffffffffffffffff16906020019092919050505062000d40565b005b620007b262000d47565b6040518082815260200191505060405180910390f35b6000858585858533604051620007de9062000d53565b80806020018060200180602001806020018773ffffffffffffffffffffffffffffffffffffffff1673ffffffffffffffffffffffffffffffffffffffff1681526020018673ffffffffffffffffffffffffffffffffffffffff1673ffffffffffffffffffffffffffffffffffffffff16815260200185810385528b818151815260200191508051906020019080838360005b838110156200088d57808201518184015260208101905062000870565b50505050905090810190601f168015620008bb5780820380516001836020036101000a031916815260200191505b5085810384528a818151815260200191508051906020019080838360005b83811015620008f6578082015181840152602081019050620008d9565b50505050905090810190601f168015620009245780820380516001836020036101000a031916815260200191505b50858103835289818151815260200191508051906020019080838360005b838110156200095f57808201518184015260208101905062000942565b50505050905090810190601f1680156200098d5780820380516001836020036101000a031916815260200191505b50858103825288818151815260200191508051906020019080838360005b83811015620009c8578082015181840152602081019050620009ab565b50505050905090810190601f168015620009f65780820380516001836020036101000a031916815260200191505b509a5050505050505050505050604051809103906000f08015801562000a20573d6000803e3d6000fd5b50905060008190806001815401808255809150509060018203906000526020600020016000909192909190916101000a81548173ffffffffffffffffffffffffffffffffffffffff021916908373ffffffffffffffffffffffffffffffffffffffff160217905550503373ffffffffffffffffffffffffffffffffffffffff168173ffffffffffffffffffffffffffffffffffffffff167fa2398daac0c8053a1e3c0280916c2ec6bc884f0959c27e639a4db829b7eabfb160405160405180910390a3505050505050565b60018054600181600116156101000203166002900480601f01602080910402602001604051908101604052809291908181526020018280546001816001161561010002031660029004801562000b855780601f1062000b595761010080835404028352916020019162000b85565b820191906000526020600020905b81548152906001019060200180831162000b6757829003601f168201915b505050505081565b806001908051906020019062000ba592919062000d61565b5050565b606062000bb562000d47565b82111562000c2b576040517f08c379a00000000000000000000000000000000000000000000000000000000081526004018080602001828103825260148152602001807f6f6666736574206f7574206f6620626f756e647300000000000000000000000081525060200191505060405180910390fd5b60008262000c3862000d47565b03905083811062000c4a578362000c4c565b805b90506014811062000c5f57601462000c61565b805b90508060405190808252806020026020018201604052801562000c935781602001602082028038833980820191505090505b50915060008090505b8181101562000d355760008185018154811062000cb557fe5b9060005260206000200160009054906101000a900473ffffffffffffffffffffffffffffffffffffffff1683828151811062000ced57fe5b602002602001019073ffffffffffffffffffffffffffffffffffffffff16908173ffffffffffffffffffffffffffffffffffffffff1681525050808060010191505062000c9c565b508191505092915050565b5050505050565b60008080549050905090565b6111a78062000e1183390190565b828054600181600116156101000203166002900490600052602060002090601f016020900481019282601f1062000da457805160ff191683800117855562000dd5565b8280016001018555821562000dd5579182015b8281111562000dd457825182559160200191906001019062000db7565b5b50905062000de4919062000de8565b5090565b62000e0d91905b8082111562000e0957600081600090555060010162000def565b5090565b9056fe60806040523480156200001157600080fd5b50604051620011a7380380620011a7833981810160405260c08110156200003757600080fd5b81019080805160405193929190846401000000008211156200005857600080fd5b838201915060208201858111156200006f57600080fd5b82518660018202830111640100000000821117156200008d57600080fd5b8083526020830192505050908051906020019080838360005b83811015620000c3578082015181840152602081019050620000a6565b50505050905090810190601f168015620000f15780820380516001836020036101000a031916815260200191505b50604052602001805160405193929190846401000000008211156200011557600080fd5b838201915060208201858111156200012c57600080fd5b82518660018202830111640100000000821117156200014a57600080fd5b8083526020830192505050908051906020019080838360005b838110156200018057808201518184015260208101905062000163565b50505050905090810190601f168015620001ae5780820380516001836020036101000a031916815260200191505b5060405260200180516040519392919084640100000000821115620001d257600080fd5b83820191506020820185811115620001e957600080fd5b82518660018202830111640100000000821117156200020757600080fd5b8083526020830192505050908051906020019080838360005b838110156200023d57808201518184015260208101905062000220565b50505050905090810190601f1680156200026b5780820380516001836020036101000a031916815260200191505b50604052602001805160405193929190846401000000008211156200028f57600080fd5b83820191506020820185811115620002a657600080fd5b8251866001820283011164010000000082111715620002c457600080fd5b8083526020830192505050908051906020019080838360005b83811015620002fa578082015181840152602081019050620002dd565b50505050905090810190601f168015620003285780820380516001836020036101000a031916815260200191505b50604052602001805190602001909291908051906020019092919050505085600190805190602001906200035e92919062000438565b5084600290805190602001906200037792919062000438565b5083600390805190602001906200039092919062000438565b508260049080519060200190620003a992919062000438565b5081600560006101000a81548173ffffffffffffffffffffffffffffffffffffffff021916908373ffffffffffffffffffffffffffffffffffffffff16021790555080600660006101000a81548173ffffffffffffffffffffffffffffffffffffffff021916908373ffffffffffffffffffffffffffffffffffffffff160217905550505050505050620004e7565b828054600181600116156101000203166002900490600052602060002090601f016020900481019282601f106200047b57805160ff1916838001178555620004ac565b82800160010185558215620004ac579182015b82811115620004ab5782518255916020019190600101906200048e565b5b509050620004bb9190620004bf565b5090565b620004e491905b80821115620004e0576000816000905550600101620004c6565b5090565b90565b610cb080620004f76000396000f3fe6080604052600436106100c25760003560e01c80633ccfd60b1161007f5780638da5cb5b116100595780638da5cb5b1461046a578063b90497e0146104c1578063de2ed89314610551578063ed88c68e1461057c576100c2565b80633ccfd60b146103335780635600f04f1461034a5780637284e416146103da576100c2565b80630180b97c146100f157806306fdde031461011c5780631a57f7b4146101ac5780631c31f710146102605780631f522595146102b157806338af3eed146102dc575b6100d73460075461058690919063ffffffff16565b600781905550600860008154809291906001019190505550005b3480156100fd57600080fd5b5061010661060e565b6040518082815260200191505060405180910390f35b34801561012857600080fd5b50610131610657565b6040518080602001828103825283818151815260200191508051906020019080838360005b83811015610171578082015181840152602081019050610156565b50505050905090810190601f16801561019e5780820380516001836020036101000a031916815260200191505b509250505060405180910390f35b3480156101b857600080fd5b506101c16106f5565b604051808060200180602001838103835285818151815260200191508051906020019060200280838360005b838110156102085780820151818401526020810190506101ed565b50505050905001838103825284818151815260200191508051906020019060200280838360005b8381101561024a57808201518184015260208101905061022f565b5050505090500194505050505060405180910390f35b34801561026c57600080fd5b506102af6004803603602081101561028357600080fd5b81019080803573ffffffffffffffffffffffffffffffffffffffff169060200190929190505050610825565b005b3480156102bd57600080fd5b506102c6610869565b6040518082815260200191505060405180910390f35b3480156102e857600080fd5b506102f161086f565b604051808273ffffffffffffffffffffffffffffffffffffffff1673ffffffffffffffffffffffffffffffffffffffff16815260200191505060405180910390f35b34801561033f57600080fd5b50610348610895565b005b34801561035657600080fd5b5061035f61093d565b6040518080602001828103825283818151815260200191508051906020019080838360005b8381101561039f578082015181840152602081019050610384565b50505050905090810190601f1680156103cc5780820380516001836020036101000a031916815260200191505b509250505060405180910390f35b3480156103e657600080fd5b506103ef6109db565b6040518080602001828103825283818151815260200191508051906020019080838360005b8381101561042f578082015181840152602081019050610414565b50505050905090810190601f16801561045c5780820380516001836020036101000a031916815260200191505b509250505060405180910390f35b34801561047657600080fd5b5061047f610a79565b604051808273ffffffffffffffffffffffffffffffffffffffff1673ffffffffffffffffffffffffffffffffffffffff16815260200191505060405180910390f35b3480156104cd57600080fd5b506104d6610a9f565b6040518080602001828103825283818151815260200191508051906020019080838360005b838110156105165780820151818401526020810190506104fb565b50505050905090810190601f1680156105435780820380516001836020036101000a031916815260200191505b509250505060405180910390f35b34801561055d57600080fd5b50610566610b3d565b6040518082815260200191505060405180910390f35b610584610b43565b005b600080828401905083811015610604576040517f08c379a000000000000000000000000000000000000000000000000000000000815260040180806020018281038252601b8152602001807f536166654d6174683a206164646974696f6e206f766572666c6f77000000000081525060200191505060405180910390fd5b8091505092915050565b60008060003373ffffffffffffffffffffffffffffffffffffffff1673ffffffffffffffffffffffffffffffffffffffff16815260200190815260200160002080549050905090565b60018054600181600116156101000203166002900480601f0160208091040260200160405190810160405280929190818152602001828054600181600116156101000203166002900480156106ed5780601f106106c2576101008083540402835291602001916106ed565b820191906000526020600020905b8154815290600101906020018083116106d057829003601f168201915b505050505081565b606080600061070261060e565b9050806040519080825280602002602001820160405280156107335781602001602082028038833980820191505090505b509250806040519080825280602002602001820160405280156107655781602001602082028038833980820191505090505b50915060008090505b818110156108195760008060003373ffffffffffffffffffffffffffffffffffffffff1673ffffffffffffffffffffffffffffffffffffffff16815260200190815260200160002082815481106107c157fe5b9060005260206000209060020201905080600001548583815181106107e257fe5b60200260200101818152505080600101548483815181106107ff57fe5b60200260200101818152505050808060010191505061076e565b50828292509250509091565b80600560006101000a81548173ffffffffffffffffffffffffffffffffffffffff021916908373ffffffffffffffffffffffffffffffffffffffff16021790555050565b60085481565b600560009054906101000a900473ffffffffffffffffffffffffffffffffffffffff1681565b6000479050600560009054906101000a900473ffffffffffffffffffffffffffffffffffffffff1673ffffffffffffffffffffffffffffffffffffffff166108fc829081150290604051600060405180830381858888f19350505050158015610902573d6000803e3d6000fd5b507f5b6b431d4476a211bb7d41c20d1aab9ae2321deee0d20be3d9fc9b1093fa6e3d816040518082815260200191505060405180910390a150565b60028054600181600116156101000203166002900480601f0160208091040260200160405190810160405280929190818152602001828054600181600116156101000203166002900480156109d35780601f106109a8576101008083540402835291602001916109d3565b820191906000526020600020905b8154815290600101906020018083116109b657829003601f168201915b505050505081565b60048054600181600116156101000203166002900480601f016020809104026020016040519081016040528092919081815260200182805460018160011615610100020316600290048015610a715780601f10610a4657610100808354040283529160200191610a71565b820191906000526020600020905b815481529060010190602001808311610a5457829003601f168201915b505050505081565b600660009054906101000a900473ffffffffffffffffffffffffffffffffffffffff1681565b60038054600181600116156101000203166002900480601f016020809104026020016040519081016040528092919081815260200182805460018160011615610100020316600290048015610b355780601f10610b0a57610100808354040283529160200191610b35565b820191906000526020600020905b815481529060010190602001808311610b1857829003601f168201915b505050505081565b60075481565b610b4b610c61565b60405180604001604052803481526020014281525090506000803373ffffffffffffffffffffffffffffffffffffffff1673ffffffffffffffffffffffffffffffffffffffff16815260200190815260200160002081908060018154018082558091505090600182039060005260206000209060020201600090919290919091506000820151816000015560208201518160010155505050610bf83460075461058690919063ffffffff16565b6007819055506008600081548092919060010191905055503373ffffffffffffffffffffffffffffffffffffffff167f264f630d9efa0d07053a31163641d9fcc0adafc9d9e76f1c37c2ce3a558d2c52346040518082815260200191505060405180910390a250565b60405180604001604052806000815260200160008152509056fea265627a7a7231582006988eaa9073ecf461d2043f3880d29fda6f623f317d0fce662f3501ae8a95a164736f6c63430005100032a265627a7a72315820b7b9f7dd426978cb16ba073015deffbeacfeefbc80e799a7354b435cf4bf168e64736f6c63430005100032",
  "source": "pragma solidity >0.4.23 <0.7.0;\n\nimport \"./Fundraiser.sol\";\n\ncontract FundraiserFactory {\n   uint256 constant maxLimit = 20;\n   Fundraiser[] private _fundraisers;\n    string public storedData;\n   event FundraiserCreated(Fundraiser indexed fundraiser, address indexed owner);\n\n    function createFundraiser(\n        string memory name,\n        string memory url,\n        string memory imageURL,\n        string memory description,\n        address payable beneficiary\n    )\n        public\n    {\n        Fundraiser fundraiser = new Fundraiser(\n            name,\n            url,\n            imageURL,\n            description,\n            beneficiary,\n            msg.sender\n        );\n        _fundraisers.push(fundraiser);\n        emit FundraiserCreated(fundraiser, msg.sender);\n    }\n\n   \n\n\n   function createFundraisertwo(\n        string memory name,\n        string memory url,\n        string memory imageURL,\n        string memory description,\n        address payable beneficiary\n    )\n        public\n    {\n    }\n\n\n\n\n\n \n   function set(string memory myText) public {\n        storedData = myText;\n    }\n\n\n\nfunction fundraisersCount() public view returns(uint256) {\n        return _fundraisers.length;\n    }\n\n    function fundraisers(uint256 limit, uint256 offset)\n        public\n        view\n        returns(Fundraiser[] memory coll)\n    {\n        require(offset <= fundraisersCount(), \"offset out of bounds\");\n\n        uint256 size = fundraisersCount() - offset;\n        size = size < limit ? size : limit;\n        size = size < maxLimit ? size : maxLimit;\n        coll = new Fundraiser[](size);\n\n        for(uint256 i = 0; i < size; i++) {\n            coll[i] = _fundraisers[offset + i];\n        }\n\n        return coll;\n    }\n}\n",
  "sourcePath": "/home/ubuntu/funds/contracts/FundraiserFactory.sol",
  "compiler": {
    "name": "solc",
    "version": "0.5.16+commit.9c3226ce.Emscripten.clang"
  },
  "schemaVersion": "3.2.3",
  "updatedAt": "2023-01-05T21:18:41.380Z",
  "networkType": "ethereum",
  "devdoc": {
    "methods": {}
  },
  "userdoc": {
    "methods": {}
  }
}